{
  "_format": "hh-sol-artifact-1",
  "contractName": "Campaign",
  "sourceName": "contracts/Campaign.sol",
  "abi": [
    {
      "inputs": [
        {
          "internalType": "uint256",
          "name": "minimum",
          "type": "uint256"
        },
        {
          "internalType": "address",
          "name": "creator",
          "type": "address"
        }
      ],
      "stateMutability": "nonpayable",
      "type": "constructor"
    },
    {
      "anonymous": false,
      "inputs": [
        {
          "indexed": true,
          "internalType": "address",
          "name": "contributor",
          "type": "address"
        },
        {
          "indexed": false,
          "internalType": "uint256",
          "name": "amount",
          "type": "uint256"
        }
      ],
      "name": "ContributionReceived",
      "type": "event"
    },
    {
      "anonymous": false,
      "inputs": [
        {
          "indexed": true,
          "internalType": "uint256",
          "name": "index",
          "type": "uint256"
        },
        {
          "indexed": false,
          "internalType": "address",
          "name": "approver",
          "type": "address"
        }
      ],
      "name": "RequestApproved",
      "type": "event"
    },
    {
      "anonymous": false,
      "inputs": [
        {
          "indexed": true,
          "internalType": "uint256",
          "name": "index",
          "type": "uint256"
        },
        {
          "indexed": false,
          "internalType": "string",
          "name": "description",
          "type": "string"
        },
        {
          "indexed": false,
          "internalType": "uint256",
          "name": "value",
          "type": "uint256"
        },
        {
          "indexed": false,
          "internalType": "address",
          "name": "recipient",
          "type": "address"
        }
      ],
      "name": "RequestCreated",
      "type": "event"
    },
    {
      "anonymous": false,
      "inputs": [
        {
          "indexed": true,
          "internalType": "uint256",
          "name": "index",
          "type": "uint256"
        }
      ],
      "name": "RequestFinalized",
      "type": "event"
    },
    {
      "inputs": [],
      "name": "approvalThreshold",
      "outputs": [
        {
          "internalType": "uint256",
          "name": "",
          "type": "uint256"
        }
      ],
      "stateMutability": "view",
      "type": "function"
    },
    {
      "inputs": [
        {
          "internalType": "uint256",
          "name": "index",
          "type": "uint256"
        }
      ],
      "name": "approveRequest",
      "outputs": [],
      "stateMutability": "nonpayable",
      "type": "function"
    },
    {
      "inputs": [
        {
          "internalType": "address",
          "name": "",
          "type": "address"
        }
      ],
      "name": "approvers",
      "outputs": [
        {
          "internalType": "bool",
          "name": "",
          "type": "bool"
        }
      ],
      "stateMutability": "view",
      "type": "function"
    },
    {
      "inputs": [],
      "name": "approversCount",
      "outputs": [
        {
          "internalType": "uint256",
          "name": "",
          "type": "uint256"
        }
      ],
      "stateMutability": "view",
      "type": "function"
    },
    {
      "inputs": [],
      "name": "contribute",
      "outputs": [],
      "stateMutability": "payable",
      "type": "function"
    },
    {
      "inputs": [
        {
          "internalType": "string",
          "name": "description",
          "type": "string"
        },
        {
          "internalType": "uint256",
          "name": "value",
          "type": "uint256"
        },
        {
          "internalType": "address payable",
          "name": "recipient",
          "type": "address"
        }
      ],
      "name": "createRequest",
      "outputs": [],
      "stateMutability": "nonpayable",
      "type": "function"
    },
    {
      "inputs": [
        {
          "internalType": "uint256",
          "name": "index",
          "type": "uint256"
        }
      ],
      "name": "finalizeRequest",
      "outputs": [],
      "stateMutability": "nonpayable",
      "type": "function"
    },
    {
      "inputs": [
        {
          "internalType": "uint256",
          "name": "index",
          "type": "uint256"
        }
      ],
      "name": "getRequest",
      "outputs": [
        {
          "internalType": "string",
          "name": "description",
          "type": "string"
        },
        {
          "internalType": "uint256",
          "name": "value",
          "type": "uint256"
        },
        {
          "internalType": "address",
          "name": "recipient",
          "type": "address"
        },
        {
          "internalType": "bool",
          "name": "complete",
          "type": "bool"
        },
        {
          "internalType": "uint256",
          "name": "approvalCount",
          "type": "uint256"
        }
      ],
      "stateMutability": "view",
      "type": "function"
    },
    {
      "inputs": [],
      "name": "getSummary",
      "outputs": [
        {
          "internalType": "uint256",
          "name": "",
          "type": "uint256"
        },
        {
          "internalType": "uint256",
          "name": "",
          "type": "uint256"
        },
        {
          "internalType": "uint256",
          "name": "",
          "type": "uint256"
        },
        {
          "internalType": "uint256",
          "name": "",
          "type": "uint256"
        },
        {
          "internalType": "address",
          "name": "",
          "type": "address"
        }
      ],
      "stateMutability": "view",
      "type": "function"
    },
    {
      "inputs": [
        {
          "internalType": "uint256",
          "name": "index",
          "type": "uint256"
        },
        {
          "internalType": "address",
          "name": "approver",
          "type": "address"
        }
      ],
      "name": "hasApproved",
      "outputs": [
        {
          "internalType": "bool",
          "name": "",
          "type": "bool"
        }
      ],
      "stateMutability": "view",
      "type": "function"
    },
    {
      "inputs": [],
      "name": "manager",
      "outputs": [
        {
          "internalType": "address",
          "name": "",
          "type": "address"
        }
      ],
      "stateMutability": "view",
      "type": "function"
    },
    {
      "inputs": [],
      "name": "minimumContribution",
      "outputs": [
        {
          "internalType": "uint256",
          "name": "",
          "type": "uint256"
        }
      ],
      "stateMutability": "view",
      "type": "function"
    },
    {
      "inputs": [
        {
          "internalType": "uint256",
          "name": "",
          "type": "uint256"
        }
      ],
      "name": "requests",
      "outputs": [
        {
          "internalType": "string",
          "name": "description",
          "type": "string"
        },
        {
          "internalType": "uint256",
          "name": "value",
          "type": "uint256"
        },
        {
          "internalType": "address payable",
          "name": "recipient",
          "type": "address"
        },
        {
          "internalType": "bool",
          "name": "complete",
          "type": "bool"
        },
        {
          "internalType": "uint256",
          "name": "approvalCount",
          "type": "uint256"
        }
      ],
      "stateMutability": "view",
      "type": "function"
    },
    {
      "inputs": [
        {
          "internalType": "uint256",
          "name": "newThreshold",
          "type": "uint256"
        }
      ],
      "name": "setApprovalThreshold",
      "outputs": [],
      "stateMutability": "nonpayable",
      "type": "function"
    },
    {
      "stateMutability": "payable",
      "type": "receive"
    }
  ],
  "bytecode": "0x6080604052604260055534801561001557600080fd5b506040516120523803806120528339818101604052810190610037919061011e565b806000806101000a81548173ffffffffffffffffffffffffffffffffffffffff021916908373ffffffffffffffffffffffffffffffffffffffff16021790555081600181905550505061015e565b600080fd5b6000819050919050565b61009d8161008a565b81146100a857600080fd5b50565b6000815190506100ba81610094565b92915050565b600073ffffffffffffffffffffffffffffffffffffffff82169050919050565b60006100eb826100c0565b9050919050565b6100fb816100e0565b811461010657600080fd5b50565b600081519050610118816100f2565b92915050565b6000806040838503121561013557610134610085565b5b6000610143858286016100ab565b925050602061015485828601610109565b9150509250929050565b611ee58061016d6000396000f3fe6080604052600436106100e15760003560e01c806382fde0931161007f578063a0016b8c11610059578063a0016b8c146102dd578063c58343ef14610306578063d7bb99ba14610347578063d7d1bbdb14610351576100f0565b806382fde0931461025e5780638a9cfd5514610289578063937e09b1146102b2576100f0565b80634051ddac116100bb5780634051ddac14610198578063481c6a75146101c75780637d0eef61146101f257806381d12c581461021d576100f0565b806303441006146100f55780630a1443911461011e5780632358d5a81461015b576100f0565b366100f0576100ee61037a565b005b600080fd5b34801561010157600080fd5b5061011c6004803603810190610117919061100e565b6104d1565b005b34801561012a57600080fd5b5061014560048036038101906101409190611099565b610812565b60405161015291906110e1565b60405180910390f35b34801561016757600080fd5b50610182600480360381019061017d91906110fc565b610832565b60405161018f91906110e1565b60405180910390f35b3480156101a457600080fd5b506101ad6108b1565b6040516101be95949392919061115a565b60405180910390f35b3480156101d357600080fd5b506101dc6108f8565b6040516101e991906111ad565b60405180910390f35b3480156101fe57600080fd5b5061020761091c565b60405161021491906111c8565b60405180910390f35b34801561022957600080fd5b50610244600480360381019061023f919061100e565b610922565b604051610255959493929190611294565b60405180910390f35b34801561026a57600080fd5b50610273610a1d565b60405161028091906111c8565b60405180910390f35b34801561029557600080fd5b506102b060048036038101906102ab919061144f565b610a23565b005b3480156102be57600080fd5b506102c7610bde565b6040516102d491906111c8565b60405180910390f35b3480156102e957600080fd5b5061030460048036038101906102ff919061100e565b610be4565b005b34801561031257600080fd5b5061032d6004803603810190610328919061100e565b610cc0565b60405161033e9594939291906114be565b60405180910390f35b61034f61037a565b005b34801561035d57600080fd5b506103786004803603810190610373919061100e565b610dd3565b005b6001543410156103bf576040517f08c379a00000000000000000000000000000000000000000000000000000000081526004016103b690611564565b60405180910390fd5b600260003373ffffffffffffffffffffffffffffffffffffffff1673ffffffffffffffffffffffffffffffffffffffff16815260200190815260200160002060009054906101000a900460ff16610481576001600260003373ffffffffffffffffffffffffffffffffffffffff1673ffffffffffffffffffffffffffffffffffffffff16815260200190815260200160002060006101000a81548160ff0219169083151502179055506003600081548092919061047b906115b3565b91905055505b3373ffffffffffffffffffffffffffffffffffffffff167f1bb460ccaaf70fbacfec17a376f8acbd278c1405590ffcc8ebe4b88daf4f64ad346040516104c791906111c8565b60405180910390a2565b60008054906101000a900473ffffffffffffffffffffffffffffffffffffffff1673ffffffffffffffffffffffffffffffffffffffff163373ffffffffffffffffffffffffffffffffffffffff161461055f576040517f08c379a00000000000000000000000000000000000000000000000000000000081526004016105569061166d565b60405180910390fd5b60048054905081106105a6576040517f08c379a000000000000000000000000000000000000000000000000000000000815260040161059d906116d9565b60405180910390fd5b6000600482815481106105bc576105bb6116f9565b5b90600052602060002090600502019050600554600354606483600301546105e39190611728565b6105ed9190611799565b101561062e576040517f08c379a000000000000000000000000000000000000000000000000000000000815260040161062590611816565b60405180910390fd5b8060020160149054906101000a900460ff1615610680576040517f08c379a000000000000000000000000000000000000000000000000000000000815260040161067790611882565b60405180910390fd5b80600101544710156106c7576040517f08c379a00000000000000000000000000000000000000000000000000000000081526004016106be906118ee565b60405180910390fd5b60006064600283600101546106dc9190611728565b6106e69190611799565b905060008183600101546106fa919061190e565b90508260020160009054906101000a900473ffffffffffffffffffffffffffffffffffffffff1673ffffffffffffffffffffffffffffffffffffffff166108fc829081150290604051600060405180830381858888f19350505050158015610766573d6000803e3d6000fd5b5073aada21fd544da24b3b96e465c4c7074f4d6e863273ffffffffffffffffffffffffffffffffffffffff166108fc839081150290604051600060405180830381858888f193505050501580156107c1573d6000803e3d6000fd5b5060018360020160146101000a81548160ff021916908315150217905550837f5f737e695a47d9dd61a69c097b680eb2d154fd3a73ddf8e06ae201447c59339560405160405180910390a250505050565b60026020528060005260406000206000915054906101000a900460ff1681565b60008060048481548110610849576108486116f9565b5b906000526020600020906005020190508060040160008473ffffffffffffffffffffffffffffffffffffffff1673ffffffffffffffffffffffffffffffffffffffff16815260200190815260200160002060009054906101000a900460ff1691505092915050565b60008060008060006001544760048054905060035460008054906101000a900473ffffffffffffffffffffffffffffffffffffffff16945094509450945094509091929394565b60008054906101000a900473ffffffffffffffffffffffffffffffffffffffff1681565b60055481565b6004818154811061093257600080fd5b906000526020600020906005020160009150905080600001805461095590611971565b80601f016020809104026020016040519081016040528092919081815260200182805461098190611971565b80156109ce5780601f106109a3576101008083540402835291602001916109ce565b820191906000526020600020905b8154815290600101906020018083116109b157829003601f168201915b5050505050908060010154908060020160009054906101000a900473ffffffffffffffffffffffffffffffffffffffff16908060020160149054906101000a900460ff16908060030154905085565b60035481565b60008054906101000a900473ffffffffffffffffffffffffffffffffffffffff1673ffffffffffffffffffffffffffffffffffffffff163373ffffffffffffffffffffffffffffffffffffffff1614610ab1576040517f08c379a0000000000000000000000000000000000000000000000000000000008152600401610aa890611a14565b60405180910390fd5b600460018160018154018082558091505003906000526020600020905050600060046001600480549050610ae5919061190e565b81548110610af657610af56116f9565b5b9060005260206000209060050201905083816000019081610b179190611be0565b50828160010181905550818160020160006101000a81548173ffffffffffffffffffffffffffffffffffffffff021916908373ffffffffffffffffffffffffffffffffffffffff16021790555060008160020160146101000a81548160ff021916908315150217905550600081600301819055506001600480549050610b9d919061190e565b7ff7365309cb3a1c4835d32acd2153ebf718723e270daad5bb2aac6dd47564583b858585604051610bd093929190611d07565b60405180910390a250505050565b60015481565b60008054906101000a900473ffffffffffffffffffffffffffffffffffffffff1673ffffffffffffffffffffffffffffffffffffffff163373ffffffffffffffffffffffffffffffffffffffff1614610c72576040517f08c379a0000000000000000000000000000000000000000000000000000000008152600401610c699061166d565b60405180910390fd5b6064811115610cb6576040517f08c379a0000000000000000000000000000000000000000000000000000000008152600401610cad90611d91565b60405180910390fd5b8060058190555050565b6060600080600080600060048781548110610cde57610cdd6116f9565b5b906000526020600020906005020190508060000181600101548260020160009054906101000a900473ffffffffffffffffffffffffffffffffffffffff168360020160149054906101000a900460ff168460030154848054610d3f90611971565b80601f0160208091040260200160405190810160405280929190818152602001828054610d6b90611971565b8015610db85780601f10610d8d57610100808354040283529160200191610db8565b820191906000526020600020905b815481529060010190602001808311610d9b57829003601f168201915b50505050509450955095509550955095505091939590929450565b600060048281548110610de957610de86116f9565b5b90600052602060002090600502019050600260003373ffffffffffffffffffffffffffffffffffffffff1673ffffffffffffffffffffffffffffffffffffffff16815260200190815260200160002060009054906101000a900460ff16610e85576040517f08c379a0000000000000000000000000000000000000000000000000000000008152600401610e7c90611e23565b60405180910390fd5b8060040160003373ffffffffffffffffffffffffffffffffffffffff1673ffffffffffffffffffffffffffffffffffffffff16815260200190815260200160002060009054906101000a900460ff1615610f14576040517f08c379a0000000000000000000000000000000000000000000000000000000008152600401610f0b90611e8f565b60405180910390fd5b60018160040160003373ffffffffffffffffffffffffffffffffffffffff1673ffffffffffffffffffffffffffffffffffffffff16815260200190815260200160002060006101000a81548160ff021916908315150217905550806003016000815480929190610f83906115b3565b9190505550817ff3dc904660a0ea05aba8dfa1e21fbc4fb2914be2a3029da7b0fdd3e5eee20ddb33604051610fb891906111ad565b60405180910390a25050565b6000604051905090565b600080fd5b600080fd5b6000819050919050565b610feb81610fd8565b8114610ff657600080fd5b50565b60008135905061100881610fe2565b92915050565b60006020828403121561102457611023610fce565b5b600061103284828501610ff9565b91505092915050565b600073ffffffffffffffffffffffffffffffffffffffff82169050919050565b60006110668261103b565b9050919050565b6110768161105b565b811461108157600080fd5b50565b6000813590506110938161106d565b92915050565b6000602082840312156110af576110ae610fce565b5b60006110bd84828501611084565b91505092915050565b60008115159050919050565b6110db816110c6565b82525050565b60006020820190506110f660008301846110d2565b92915050565b6000806040838503121561111357611112610fce565b5b600061112185828601610ff9565b925050602061113285828601611084565b9150509250929050565b61114581610fd8565b82525050565b6111548161105b565b82525050565b600060a08201905061116f600083018861113c565b61117c602083018761113c565b611189604083018661113c565b611196606083018561113c565b6111a3608083018461114b565b9695505050505050565b60006020820190506111c2600083018461114b565b92915050565b60006020820190506111dd600083018461113c565b92915050565b600081519050919050565b600082825260208201905092915050565b60005b8381101561121d578082015181840152602081019050611202565b60008484015250505050565b6000601f19601f8301169050919050565b6000611245826111e3565b61124f81856111ee565b935061125f8185602086016111ff565b61126881611229565b840191505092915050565b600061127e8261103b565b9050919050565b61128e81611273565b82525050565b600060a08201905081810360008301526112ae818861123a565b90506112bd602083018761113c565b6112ca6040830186611285565b6112d760608301856110d2565b6112e4608083018461113c565b9695505050505050565b600080fd5b600080fd5b7f4e487b7100000000000000000000000000000000000000000000000000000000600052604160045260246000fd5b61133082611229565b810181811067ffffffffffffffff8211171561134f5761134e6112f8565b5b80604052505050565b6000611362610fc4565b905061136e8282611327565b919050565b600067ffffffffffffffff82111561138e5761138d6112f8565b5b61139782611229565b9050602081019050919050565b82818337600083830152505050565b60006113c66113c184611373565b611358565b9050828152602081018484840111156113e2576113e16112f3565b5b6113ed8482856113a4565b509392505050565b600082601f83011261140a576114096112ee565b5b813561141a8482602086016113b3565b91505092915050565b61142c81611273565b811461143757600080fd5b50565b60008135905061144981611423565b92915050565b60008060006060848603121561146857611467610fce565b5b600084013567ffffffffffffffff81111561148657611485610fd3565b5b611492868287016113f5565b93505060206114a386828701610ff9565b92505060406114b48682870161143a565b9150509250925092565b600060a08201905081810360008301526114d8818861123a565b90506114e7602083018761113c565b6114f4604083018661114b565b61150160608301856110d2565b61150e608083018461113c565b9695505050505050565b7f436f6e747269627574696f6e20746f6f20736d616c6c00000000000000000000600082015250565b600061154e6016836111ee565b915061155982611518565b602082019050919050565b6000602082019050818103600083015261157d81611541565b9050919050565b7f4e487b7100000000000000000000000000000000000000000000000000000000600052601160045260246000fd5b60006115be82610fd8565b91507fffffffffffffffffffffffffffffffffffffffffffffffffffffffffffffffff82036115f0576115ef611584565b5b600182019050919050565b7f4f6e6c79206d616e616765722063616e2063616c6c20746869732066756e637460008201527f696f6e0000000000000000000000000000000000000000000000000000000000602082015250565b60006116576023836111ee565b9150611662826115fb565b604082019050919050565b600060208201905081810360008301526116868161164a565b9050919050565b7f496e76616c6964207265717565737420696e6465780000000000000000000000600082015250565b60006116c36015836111ee565b91506116ce8261168d565b602082019050919050565b600060208201905081810360008301526116f2816116b6565b9050919050565b7f4e487b7100000000000000000000000000000000000000000000000000000000600052603260045260246000fd5b600061173382610fd8565b915061173e83610fd8565b925082820261174c81610fd8565b9150828204841483151761176357611762611584565b5b5092915050565b7f4e487b7100000000000000000000000000000000000000000000000000000000600052601260045260246000fd5b60006117a482610fd8565b91506117af83610fd8565b9250826117bf576117be61176a565b5b828204905092915050565b7f4e6f7420656e6f75676820617070726f76616c73000000000000000000000000600082015250565b60006118006014836111ee565b915061180b826117ca565b602082019050919050565b6000602082019050818103600083015261182f816117f3565b9050919050565b7f5265717565737420616c72656164792066696e616c697a656400000000000000600082015250565b600061186c6019836111ee565b915061187782611836565b602082019050919050565b6000602082019050818103600083015261189b8161185f565b9050919050565b7f496e73756666696369656e742066756e64730000000000000000000000000000600082015250565b60006118d86012836111ee565b91506118e3826118a2565b602082019050919050565b60006020820190508181036000830152611907816118cb565b9050919050565b600061191982610fd8565b915061192483610fd8565b925082820390508181111561193c5761193b611584565b5b92915050565b7f4e487b7100000000000000000000000000000000000000000000000000000000600052602260045260246000fd5b6000600282049050600182168061198957607f821691505b60208210810361199c5761199b611942565b5b50919050565b7f4f6e6c79206d616e616765722843616d706169676e2063726561746f7229206360008201527f616e206372656174652072657175657374730000000000000000000000000000602082015250565b60006119fe6032836111ee565b9150611a09826119a2565b604082019050919050565b60006020820190508181036000830152611a2d816119f1565b9050919050565b60008190508160005260206000209050919050565b60006020601f8301049050919050565b600082821b905092915050565b600060088302611a967fffffffffffffffffffffffffffffffffffffffffffffffffffffffffffffffff82611a59565b611aa08683611a59565b95508019841693508086168417925050509392505050565b6000819050919050565b6000611add611ad8611ad384610fd8565b611ab8565b610fd8565b9050919050565b6000819050919050565b611af783611ac2565b611b0b611b0382611ae4565b848454611a66565b825550505050565b600090565b611b20611b13565b611b2b818484611aee565b505050565b5b81811015611b4f57611b44600082611b18565b600181019050611b31565b5050565b601f821115611b9457611b6581611a34565b611b6e84611a49565b81016020851015611b7d578190505b611b91611b8985611a49565b830182611b30565b50505b505050565b600082821c905092915050565b6000611bb760001984600802611b99565b1980831691505092915050565b6000611bd08383611ba6565b9150826002028217905092915050565b611be9826111e3565b67ffffffffffffffff811115611c0257611c016112f8565b5b611c0c8254611971565b611c17828285611b53565b600060209050601f831160018114611c4a5760008415611c38578287015190505b611c428582611bc4565b865550611caa565b601f198416611c5886611a34565b60005b82811015611c8057848901518255600182019150602085019450602081019050611c5b565b86831015611c9d5784890151611c99601f891682611ba6565b8355505b6001600288020188555050505b505050505050565b6000611ccd611cc8611cc38461103b565b611ab8565b61103b565b9050919050565b6000611cdf82611cb2565b9050919050565b6000611cf182611cd4565b9050919050565b611d0181611ce6565b82525050565b60006060820190508181036000830152611d21818661123a565b9050611d30602083018561113c565b611d3d6040830184611cf8565b949350505050565b7f4d757374206265203c3d20313030000000000000000000000000000000000000600082015250565b6000611d7b600e836111ee565b9150611d8682611d45565b602082019050919050565b60006020820190508181036000830152611daa81611d6e565b9050919050565b7f4f6e6c7920617070726f766572732063616e20617070726f766520726571756560008201527f7374730000000000000000000000000000000000000000000000000000000000602082015250565b6000611e0d6023836111ee565b9150611e1882611db1565b604082019050919050565b60006020820190508181036000830152611e3c81611e00565b9050919050565b7f416c726561647920617070726f76656400000000000000000000000000000000600082015250565b6000611e796010836111ee565b9150611e8482611e43565b602082019050919050565b60006020820190508181036000830152611ea881611e6c565b905091905056fea26469706673582212202ee30adad32c99adcd2917d29945fa436a39cba80d4e11484973f9c28e94d11864736f6c634300081c0033",
  "linkReferences": {},
  "deployedLinkReferences": {}
}