{
  "_format": "hh-sol-artifact-1",
  "contractName": "Campaign",
  "sourceName": "contracts/Campaign.sol",
  "abi": [
    {
      "inputs": [
        {
          "internalType": "uint256",
          "name": "minimum",
          "type": "uint256"
        },
        {
          "internalType": "address",
          "name": "creator",
          "type": "address"
        },
        {
          "internalType": "string",
          "name": "_title",
          "type": "string"
        },
        {
          "internalType": "string",
          "name": "_desc",
          "type": "string"
        },
        {
          "internalType": "uint256",
          "name": "_targetAmount",
          "type": "uint256"
        },
        {
          "internalType": "string",
          "name": "_contactInfo",
          "type": "string"
        }
      ],
      "stateMutability": "nonpayable",
      "type": "constructor"
    },
    {
      "anonymous": false,
      "inputs": [
        {
          "indexed": true,
          "internalType": "address",
          "name": "contributor",
          "type": "address"
        },
        {
          "indexed": false,
          "internalType": "uint256",
          "name": "amount",
          "type": "uint256"
        }
      ],
      "name": "ContributionReceived",
      "type": "event"
    },
    {
      "anonymous": false,
      "inputs": [
        {
          "indexed": true,
          "internalType": "uint256",
          "name": "index",
          "type": "uint256"
        },
        {
          "indexed": false,
          "internalType": "address",
          "name": "approver",
          "type": "address"
        }
      ],
      "name": "RequestApproved",
      "type": "event"
    },
    {
      "anonymous": false,
      "inputs": [
        {
          "indexed": true,
          "internalType": "uint256",
          "name": "index",
          "type": "uint256"
        },
        {
          "indexed": false,
          "internalType": "string",
          "name": "description",
          "type": "string"
        },
        {
          "indexed": false,
          "internalType": "uint256",
          "name": "value",
          "type": "uint256"
        },
        {
          "indexed": false,
          "internalType": "address",
          "name": "recipient",
          "type": "address"
        },
        {
          "indexed": false,
          "internalType": "bool",
          "name": "complete",
          "type": "bool"
        },
        {
          "indexed": false,
          "internalType": "uint256",
          "name": "approvalCount",
          "type": "uint256"
        },
        {
          "indexed": false,
          "internalType": "uint256",
          "name": "timestamp",
          "type": "uint256"
        }
      ],
      "name": "RequestCreated",
      "type": "event"
    },
    {
      "anonymous": false,
      "inputs": [
        {
          "indexed": true,
          "internalType": "uint256",
          "name": "index",
          "type": "uint256"
        },
        {
          "indexed": false,
          "internalType": "uint256",
          "name": "amount",
          "type": "uint256"
        },
        {
          "indexed": false,
          "internalType": "address",
          "name": "fundSeekerAddr",
          "type": "address"
        },
        {
          "indexed": false,
          "internalType": "uint256",
          "name": "timestamp",
          "type": "uint256"
        }
      ],
      "name": "RequestFinalized",
      "type": "event"
    },
    {
      "inputs": [],
      "name": "approvalThreshold",
      "outputs": [
        {
          "internalType": "uint256",
          "name": "",
          "type": "uint256"
        }
      ],
      "stateMutability": "view",
      "type": "function"
    },
    {
      "inputs": [
        {
          "internalType": "uint256",
          "name": "index",
          "type": "uint256"
        }
      ],
      "name": "approveRequest",
      "outputs": [],
      "stateMutability": "nonpayable",
      "type": "function"
    },
    {
      "inputs": [
        {
          "internalType": "address",
          "name": "",
          "type": "address"
        }
      ],
      "name": "approvers",
      "outputs": [
        {
          "internalType": "bool",
          "name": "",
          "type": "bool"
        }
      ],
      "stateMutability": "view",
      "type": "function"
    },
    {
      "inputs": [],
      "name": "approversCount",
      "outputs": [
        {
          "internalType": "uint256",
          "name": "",
          "type": "uint256"
        }
      ],
      "stateMutability": "view",
      "type": "function"
    },
    {
      "inputs": [],
      "name": "contactInfo",
      "outputs": [
        {
          "internalType": "string",
          "name": "",
          "type": "string"
        }
      ],
      "stateMutability": "view",
      "type": "function"
    },
    {
      "inputs": [],
      "name": "contribute",
      "outputs": [],
      "stateMutability": "payable",
      "type": "function"
    },
    {
      "inputs": [
        {
          "internalType": "string",
          "name": "_description",
          "type": "string"
        },
        {
          "internalType": "uint256",
          "name": "_value",
          "type": "uint256"
        },
        {
          "internalType": "address payable",
          "name": "_recipient",
          "type": "address"
        }
      ],
      "name": "createRequest",
      "outputs": [],
      "stateMutability": "nonpayable",
      "type": "function"
    },
    {
      "inputs": [],
      "name": "createdAt",
      "outputs": [
        {
          "internalType": "uint256",
          "name": "",
          "type": "uint256"
        }
      ],
      "stateMutability": "view",
      "type": "function"
    },
    {
      "inputs": [],
      "name": "description",
      "outputs": [
        {
          "internalType": "string",
          "name": "",
          "type": "string"
        }
      ],
      "stateMutability": "view",
      "type": "function"
    },
    {
      "inputs": [
        {
          "internalType": "uint256",
          "name": "index",
          "type": "uint256"
        }
      ],
      "name": "finalizeRequest",
      "outputs": [],
      "stateMutability": "nonpayable",
      "type": "function"
    },
    {
      "inputs": [
        {
          "internalType": "uint256",
          "name": "index",
          "type": "uint256"
        }
      ],
      "name": "getRequest",
      "outputs": [
        {
          "internalType": "string",
          "name": "_description",
          "type": "string"
        },
        {
          "internalType": "uint256",
          "name": "_value",
          "type": "uint256"
        },
        {
          "internalType": "address",
          "name": "_recipient",
          "type": "address"
        },
        {
          "internalType": "bool",
          "name": "_complete",
          "type": "bool"
        },
        {
          "internalType": "uint256",
          "name": "_approvalCount",
          "type": "uint256"
        }
      ],
      "stateMutability": "view",
      "type": "function"
    },
    {
      "inputs": [],
      "name": "getSummary",
      "outputs": [
        {
          "internalType": "uint256",
          "name": "",
          "type": "uint256"
        },
        {
          "internalType": "uint256",
          "name": "",
          "type": "uint256"
        },
        {
          "internalType": "uint256",
          "name": "",
          "type": "uint256"
        },
        {
          "internalType": "uint256",
          "name": "",
          "type": "uint256"
        },
        {
          "internalType": "address",
          "name": "",
          "type": "address"
        },
        {
          "internalType": "string",
          "name": "",
          "type": "string"
        },
        {
          "internalType": "string",
          "name": "",
          "type": "string"
        },
        {
          "internalType": "uint256",
          "name": "",
          "type": "uint256"
        },
        {
          "internalType": "uint256",
          "name": "",
          "type": "uint256"
        }
      ],
      "stateMutability": "view",
      "type": "function"
    },
    {
      "inputs": [
        {
          "internalType": "uint256",
          "name": "index",
          "type": "uint256"
        },
        {
          "internalType": "address",
          "name": "approver",
          "type": "address"
        }
      ],
      "name": "hasApproved",
      "outputs": [
        {
          "internalType": "bool",
          "name": "",
          "type": "bool"
        }
      ],
      "stateMutability": "view",
      "type": "function"
    },
    {
      "inputs": [],
      "name": "manager",
      "outputs": [
        {
          "internalType": "address",
          "name": "",
          "type": "address"
        }
      ],
      "stateMutability": "view",
      "type": "function"
    },
    {
      "inputs": [],
      "name": "minimumContribution",
      "outputs": [
        {
          "internalType": "uint256",
          "name": "",
          "type": "uint256"
        }
      ],
      "stateMutability": "view",
      "type": "function"
    },
    {
      "inputs": [
        {
          "internalType": "uint256",
          "name": "",
          "type": "uint256"
        }
      ],
      "name": "requests",
      "outputs": [
        {
          "internalType": "string",
          "name": "description",
          "type": "string"
        },
        {
          "internalType": "uint256",
          "name": "value",
          "type": "uint256"
        },
        {
          "internalType": "address payable",
          "name": "recipient",
          "type": "address"
        },
        {
          "internalType": "bool",
          "name": "complete",
          "type": "bool"
        },
        {
          "internalType": "uint256",
          "name": "approvalCount",
          "type": "uint256"
        }
      ],
      "stateMutability": "view",
      "type": "function"
    },
    {
      "inputs": [
        {
          "internalType": "uint256",
          "name": "newThreshold",
          "type": "uint256"
        }
      ],
      "name": "setApprovalThreshold",
      "outputs": [],
      "stateMutability": "nonpayable",
      "type": "function"
    },
    {
      "inputs": [],
      "name": "targetAmount",
      "outputs": [
        {
          "internalType": "uint256",
          "name": "",
          "type": "uint256"
        }
      ],
      "stateMutability": "view",
      "type": "function"
    },
    {
      "inputs": [],
      "name": "title",
      "outputs": [
        {
          "internalType": "string",
          "name": "",
          "type": "string"
        }
      ],
      "stateMutability": "view",
      "type": "function"
    },
    {
      "stateMutability": "payable",
      "type": "receive"
    }
  ],
  "bytecode": "0x60806040526042600a5534801561001557600080fd5b50604051612a45380380612a45833981810160405281019061003791906102d1565b84600560006101000a81548173ffffffffffffffffffffffffffffffffffffffff021916908373ffffffffffffffffffffffffffffffffffffffff16021790555085600681905550836000908161008e91906105c9565b50826001908161009e91906105c9565b508160028190555080600490816100b591906105c9565b504260038190555050505050505061069b565b6000604051905090565b600080fd5b600080fd5b6000819050919050565b6100ef816100dc565b81146100fa57600080fd5b50565b60008151905061010c816100e6565b92915050565b600073ffffffffffffffffffffffffffffffffffffffff82169050919050565b600061013d82610112565b9050919050565b61014d81610132565b811461015857600080fd5b50565b60008151905061016a81610144565b92915050565b600080fd5b600080fd5b6000601f19601f8301169050919050565b7f4e487b7100000000000000000000000000000000000000000000000000000000600052604160045260246000fd5b6101c38261017a565b810181811067ffffffffffffffff821117156101e2576101e161018b565b5b80604052505050565b60006101f56100c8565b905061020182826101ba565b919050565b600067ffffffffffffffff8211156102215761022061018b565b5b61022a8261017a565b9050602081019050919050565b60005b8381101561025557808201518184015260208101905061023a565b60008484015250505050565b600061027461026f84610206565b6101eb565b9050828152602081018484840111156102905761028f610175565b5b61029b848285610237565b509392505050565b600082601f8301126102b8576102b7610170565b5b81516102c8848260208601610261565b91505092915050565b60008060008060008060c087890312156102ee576102ed6100d2565b5b60006102fc89828a016100fd565b965050602061030d89828a0161015b565b955050604087015167ffffffffffffffff81111561032e5761032d6100d7565b5b61033a89828a016102a3565b945050606087015167ffffffffffffffff81111561035b5761035a6100d7565b5b61036789828a016102a3565b935050608061037889828a016100fd565b92505060a087015167ffffffffffffffff811115610399576103986100d7565b5b6103a589828a016102a3565b9150509295509295509295565b600081519050919050565b7f4e487b7100000000000000000000000000000000000000000000000000000000600052602260045260246000fd5b6000600282049050600182168061040457607f821691505b602082108103610417576104166103bd565b5b50919050565b60008190508160005260206000209050919050565b60006020601f8301049050919050565b600082821b905092915050565b60006008830261047f7fffffffffffffffffffffffffffffffffffffffffffffffffffffffffffffffff82610442565b6104898683610442565b95508019841693508086168417925050509392505050565b6000819050919050565b60006104c66104c16104bc846100dc565b6104a1565b6100dc565b9050919050565b6000819050919050565b6104e0836104ab565b6104f46104ec826104cd565b84845461044f565b825550505050565b600090565b6105096104fc565b6105148184846104d7565b505050565b5b818110156105385761052d600082610501565b60018101905061051a565b5050565b601f82111561057d5761054e8161041d565b61055784610432565b81016020851015610566578190505b61057a61057285610432565b830182610519565b50505b505050565b600082821c905092915050565b60006105a060001984600802610582565b1980831691505092915050565b60006105b9838361058f565b9150826002028217905092915050565b6105d2826103b2565b67ffffffffffffffff8111156105eb576105ea61018b565b5b6105f582546103ec565b61060082828561053c565b600060209050601f8311600181146106335760008415610621578287015190505b61062b85826105ad565b865550610693565b601f1984166106418661041d565b60005b8281101561066957848901518255600182019150602085019450602081019050610644565b868310156106865784890151610682601f89168261058f565b8355505b6001600288020188555050505b505050505050565b61239b806106aa6000396000f3fe6080604052600436106101185760003560e01c806381d12c58116100a0578063a0016b8c11610064578063a0016b8c146103c4578063c58343ef146103ed578063cf09e0d01461042e578063d7bb99ba14610459578063d7d1bbdb1461046357610127565b806381d12c58146102d957806382fde0931461031a5780638a9cfd5514610345578063937e09b11461036e578063953b8fb81461039957610127565b8063481c6a75116100e7578063481c6a75146102025780634a79d50c1461022d5780637284e4161461025857806375cfdb50146102835780637d0eef61146102ae57610127565b8063034410061461012c5780630a144391146101555780632358d5a8146101925780634051ddac146101cf57610127565b366101275761012561048c565b005b600080fd5b34801561013857600080fd5b50610153600480360381019061014e9190611450565b6105e3565b005b34801561016157600080fd5b5061017c600480360381019061017791906114db565b61095b565b6040516101899190611523565b60405180910390f35b34801561019e57600080fd5b506101b960048036038101906101b4919061153e565b61097b565b6040516101c69190611523565b60405180910390f35b3480156101db57600080fd5b506101e46109fa565b6040516101f99998979695949392919061162c565b60405180910390f35b34801561020e57600080fd5b50610217610b77565b60405161022491906116c7565b60405180910390f35b34801561023957600080fd5b50610242610b9d565b60405161024f91906116e2565b60405180910390f35b34801561026457600080fd5b5061026d610c2b565b60405161027a91906116e2565b60405180910390f35b34801561028f57600080fd5b50610298610cb9565b6040516102a591906116e2565b60405180910390f35b3480156102ba57600080fd5b506102c3610d47565b6040516102d09190611704565b60405180910390f35b3480156102e557600080fd5b5061030060048036038101906102fb9190611450565b610d4d565b604051610311959493929190611740565b60405180910390f35b34801561032657600080fd5b5061032f610e48565b60405161033c9190611704565b60405180910390f35b34801561035157600080fd5b5061036c600480360381019061036791906118fb565b610e4e565b005b34801561037a57600080fd5b50610383611012565b6040516103909190611704565b60405180910390f35b3480156103a557600080fd5b506103ae611018565b6040516103bb9190611704565b60405180910390f35b3480156103d057600080fd5b506103eb60048036038101906103e69190611450565b61101e565b005b3480156103f957600080fd5b50610414600480360381019061040f9190611450565b6110fc565b60405161042595949392919061196a565b60405180910390f35b34801561043a57600080fd5b5061044361120f565b6040516104509190611704565b60405180910390f35b61046161048c565b005b34801561046f57600080fd5b5061048a60048036038101906104859190611450565b611215565b005b6006543410156104d1576040517f08c379a00000000000000000000000000000000000000000000000000000000081526004016104c890611a10565b60405180910390fd5b600760003373ffffffffffffffffffffffffffffffffffffffff1673ffffffffffffffffffffffffffffffffffffffff16815260200190815260200160002060009054906101000a900460ff16610593576001600760003373ffffffffffffffffffffffffffffffffffffffff1673ffffffffffffffffffffffffffffffffffffffff16815260200190815260200160002060006101000a81548160ff0219169083151502179055506008600081548092919061058d90611a5f565b91905055505b3373ffffffffffffffffffffffffffffffffffffffff167f1bb460ccaaf70fbacfec17a376f8acbd278c1405590ffcc8ebe4b88daf4f64ad346040516105d99190611704565b60405180910390a2565b600560009054906101000a900473ffffffffffffffffffffffffffffffffffffffff1673ffffffffffffffffffffffffffffffffffffffff163373ffffffffffffffffffffffffffffffffffffffff1614610673576040517f08c379a000000000000000000000000000000000000000000000000000000000815260040161066a90611b19565b60405180910390fd5b60098054905081106106ba576040517f08c379a00000000000000000000000000000000000000000000000000000000081526004016106b190611b85565b60405180910390fd5b6000600982815481106106d0576106cf611ba5565b5b90600052602060002090600502019050600a54600854606483600301546106f79190611bd4565b6107019190611c45565b1015610742576040517f08c379a000000000000000000000000000000000000000000000000000000000815260040161073990611cc2565b60405180910390fd5b8060020160149054906101000a900460ff1615610794576040517f08c379a000000000000000000000000000000000000000000000000000000000815260040161078b90611d2e565b60405180910390fd5b80600101544710156107db576040517f08c379a00000000000000000000000000000000000000000000000000000000081526004016107d290611d9a565b60405180910390fd5b60006064600283600101546107f09190611bd4565b6107fa9190611c45565b9050600081836001015461080e9190611dba565b90508260020160009054906101000a900473ffffffffffffffffffffffffffffffffffffffff1673ffffffffffffffffffffffffffffffffffffffff166108fc829081150290604051600060405180830381858888f1935050505015801561087a573d6000803e3d6000fd5b5073aada21fd544da24b3b96e465c4c7074f4d6e863273ffffffffffffffffffffffffffffffffffffffff166108fc839081150290604051600060405180830381858888f193505050501580156108d5573d6000803e3d6000fd5b5060018360020160146101000a81548160ff021916908315150217905550837f303ec522407eff3ed59d58c42e7572cb11cbc826997b5e38b1de62cb71f3fa7c8460010154600560009054906101000a900473ffffffffffffffffffffffffffffffffffffffff164260405161094d93929190611dee565b60405180910390a250505050565b60076020528060005260406000206000915054906101000a900460ff1681565b6000806009848154811061099257610991611ba5565b5b906000526020600020906005020190508060040160008473ffffffffffffffffffffffffffffffffffffffff1673ffffffffffffffffffffffffffffffffffffffff16815260200190815260200160002060009054906101000a900460ff1691505092915050565b600080600080600060608060008060065447600980549050600854600560009054906101000a900473ffffffffffffffffffffffffffffffffffffffff1660006001600254600354838054610a4e90611e54565b80601f0160208091040260200160405190810160405280929190818152602001828054610a7a90611e54565b8015610ac75780601f10610a9c57610100808354040283529160200191610ac7565b820191906000526020600020905b815481529060010190602001808311610aaa57829003601f168201915b50505050509350828054610ada90611e54565b80601f0160208091040260200160405190810160405280929190818152602001828054610b0690611e54565b8015610b535780601f10610b2857610100808354040283529160200191610b53565b820191906000526020600020905b815481529060010190602001808311610b3657829003601f168201915b50505050509250985098509850985098509850985098509850909192939495969798565b600560009054906101000a900473ffffffffffffffffffffffffffffffffffffffff1681565b60008054610baa90611e54565b80601f0160208091040260200160405190810160405280929190818152602001828054610bd690611e54565b8015610c235780601f10610bf857610100808354040283529160200191610c23565b820191906000526020600020905b815481529060010190602001808311610c0657829003601f168201915b505050505081565b60018054610c3890611e54565b80601f0160208091040260200160405190810160405280929190818152602001828054610c6490611e54565b8015610cb15780601f10610c8657610100808354040283529160200191610cb1565b820191906000526020600020905b815481529060010190602001808311610c9457829003601f168201915b505050505081565b60048054610cc690611e54565b80601f0160208091040260200160405190810160405280929190818152602001828054610cf290611e54565b8015610d3f5780601f10610d1457610100808354040283529160200191610d3f565b820191906000526020600020905b815481529060010190602001808311610d2257829003601f168201915b505050505081565b600a5481565b60098181548110610d5d57600080fd5b9060005260206000209060050201600091509050806000018054610d8090611e54565b80601f0160208091040260200160405190810160405280929190818152602001828054610dac90611e54565b8015610df95780601f10610dce57610100808354040283529160200191610df9565b820191906000526020600020905b815481529060010190602001808311610ddc57829003601f168201915b5050505050908060010154908060020160009054906101000a900473ffffffffffffffffffffffffffffffffffffffff16908060020160149054906101000a900460ff16908060030154905085565b60085481565b600560009054906101000a900473ffffffffffffffffffffffffffffffffffffffff1673ffffffffffffffffffffffffffffffffffffffff163373ffffffffffffffffffffffffffffffffffffffff1614610ede576040517f08c379a0000000000000000000000000000000000000000000000000000000008152600401610ed590611b19565b60405180910390fd5b600960018160018154018082558091505003906000526020600020905050600060096001600980549050610f129190611dba565b81548110610f2357610f22611ba5565b5b9060005260206000209060050201905083816000019081610f449190612031565b50828160010181905550818160020160006101000a81548173ffffffffffffffffffffffffffffffffffffffff021916908373ffffffffffffffffffffffffffffffffffffffff16021790555060008160020160146101000a81548160ff021916908315150217905550600081600301819055506001600980549050610fca9190611dba565b7f5eea7f7118852ceb058e1fa4a963a198c77bf5054f6a163a6f79f28867f736798585856000804260405161100496959493929190612193565b60405180910390a250505050565b60065481565b60025481565b600560009054906101000a900473ffffffffffffffffffffffffffffffffffffffff1673ffffffffffffffffffffffffffffffffffffffff163373ffffffffffffffffffffffffffffffffffffffff16146110ae576040517f08c379a00000000000000000000000000000000000000000000000000000000081526004016110a590611b19565b60405180910390fd5b60648111156110f2576040517f08c379a00000000000000000000000000000000000000000000000000000000081526004016110e990612247565b60405180910390fd5b80600a8190555050565b606060008060008060006009878154811061111a57611119611ba5565b5b906000526020600020906005020190508060000181600101548260020160009054906101000a900473ffffffffffffffffffffffffffffffffffffffff168360020160149054906101000a900460ff16846003015484805461117b90611e54565b80601f01602080910402602001604051908101604052809291908181526020018280546111a790611e54565b80156111f45780601f106111c9576101008083540402835291602001916111f4565b820191906000526020600020905b8154815290600101906020018083116111d757829003601f168201915b50505050509450955095509550955095505091939590929450565b60035481565b60006009828154811061122b5761122a611ba5565b5b90600052602060002090600502019050600760003373ffffffffffffffffffffffffffffffffffffffff1673ffffffffffffffffffffffffffffffffffffffff16815260200190815260200160002060009054906101000a900460ff166112c7576040517f08c379a00000000000000000000000000000000000000000000000000000000081526004016112be906122d9565b60405180910390fd5b8060040160003373ffffffffffffffffffffffffffffffffffffffff1673ffffffffffffffffffffffffffffffffffffffff16815260200190815260200160002060009054906101000a900460ff1615611356576040517f08c379a000000000000000000000000000000000000000000000000000000000815260040161134d90612345565b60405180910390fd5b60018160040160003373ffffffffffffffffffffffffffffffffffffffff1673ffffffffffffffffffffffffffffffffffffffff16815260200190815260200160002060006101000a81548160ff0219169083151502179055508060030160008154809291906113c590611a5f565b9190505550817ff3dc904660a0ea05aba8dfa1e21fbc4fb2914be2a3029da7b0fdd3e5eee20ddb336040516113fa91906116c7565b60405180910390a25050565b6000604051905090565b600080fd5b600080fd5b6000819050919050565b61142d8161141a565b811461143857600080fd5b50565b60008135905061144a81611424565b92915050565b60006020828403121561146657611465611410565b5b60006114748482850161143b565b91505092915050565b600073ffffffffffffffffffffffffffffffffffffffff82169050919050565b60006114a88261147d565b9050919050565b6114b88161149d565b81146114c357600080fd5b50565b6000813590506114d5816114af565b92915050565b6000602082840312156114f1576114f0611410565b5b60006114ff848285016114c6565b91505092915050565b60008115159050919050565b61151d81611508565b82525050565b60006020820190506115386000830184611514565b92915050565b6000806040838503121561155557611554611410565b5b60006115638582860161143b565b9250506020611574858286016114c6565b9150509250929050565b6115878161141a565b82525050565b6115968161149d565b82525050565b600081519050919050565b600082825260208201905092915050565b60005b838110156115d65780820151818401526020810190506115bb565b60008484015250505050565b6000601f19601f8301169050919050565b60006115fe8261159c565b61160881856115a7565b93506116188185602086016115b8565b611621816115e2565b840191505092915050565b600061012082019050611642600083018c61157e565b61164f602083018b61157e565b61165c604083018a61157e565b611669606083018961157e565b611676608083018861158d565b81810360a083015261168881876115f3565b905081810360c083015261169c81866115f3565b90506116ab60e083018561157e565b6116b961010083018461157e565b9a9950505050505050505050565b60006020820190506116dc600083018461158d565b92915050565b600060208201905081810360008301526116fc81846115f3565b905092915050565b6000602082019050611719600083018461157e565b92915050565b600061172a8261147d565b9050919050565b61173a8161171f565b82525050565b600060a082019050818103600083015261175a81886115f3565b9050611769602083018761157e565b6117766040830186611731565b6117836060830185611514565b611790608083018461157e565b9695505050505050565b600080fd5b600080fd5b7f4e487b7100000000000000000000000000000000000000000000000000000000600052604160045260246000fd5b6117dc826115e2565b810181811067ffffffffffffffff821117156117fb576117fa6117a4565b5b80604052505050565b600061180e611406565b905061181a82826117d3565b919050565b600067ffffffffffffffff82111561183a576118396117a4565b5b611843826115e2565b9050602081019050919050565b82818337600083830152505050565b600061187261186d8461181f565b611804565b90508281526020810184848401111561188e5761188d61179f565b5b611899848285611850565b509392505050565b600082601f8301126118b6576118b561179a565b5b81356118c684826020860161185f565b91505092915050565b6118d88161171f565b81146118e357600080fd5b50565b6000813590506118f5816118cf565b92915050565b60008060006060848603121561191457611913611410565b5b600084013567ffffffffffffffff81111561193257611931611415565b5b61193e868287016118a1565b935050602061194f8682870161143b565b9250506040611960868287016118e6565b9150509250925092565b600060a082019050818103600083015261198481886115f3565b9050611993602083018761157e565b6119a0604083018661158d565b6119ad6060830185611514565b6119ba608083018461157e565b9695505050505050565b7f436f6e747269627574696f6e20746f6f20736d616c6c00000000000000000000600082015250565b60006119fa6016836115a7565b9150611a05826119c4565b602082019050919050565b60006020820190508181036000830152611a29816119ed565b9050919050565b7f4e487b7100000000000000000000000000000000000000000000000000000000600052601160045260246000fd5b6000611a6a8261141a565b91507fffffffffffffffffffffffffffffffffffffffffffffffffffffffffffffffff8203611a9c57611a9b611a30565b5b600182019050919050565b7f4f6e6c79206d616e616765722063616e2063616c6c20746869732066756e637460008201527f696f6e0000000000000000000000000000000000000000000000000000000000602082015250565b6000611b036023836115a7565b9150611b0e82611aa7565b604082019050919050565b60006020820190508181036000830152611b3281611af6565b9050919050565b7f496e76616c6964207265717565737420696e6465780000000000000000000000600082015250565b6000611b6f6015836115a7565b9150611b7a82611b39565b602082019050919050565b60006020820190508181036000830152611b9e81611b62565b9050919050565b7f4e487b7100000000000000000000000000000000000000000000000000000000600052603260045260246000fd5b6000611bdf8261141a565b9150611bea8361141a565b9250828202611bf88161141a565b91508282048414831517611c0f57611c0e611a30565b5b5092915050565b7f4e487b7100000000000000000000000000000000000000000000000000000000600052601260045260246000fd5b6000611c508261141a565b9150611c5b8361141a565b925082611c6b57611c6a611c16565b5b828204905092915050565b7f4e6f7420656e6f75676820617070726f76616c73000000000000000000000000600082015250565b6000611cac6014836115a7565b9150611cb782611c76565b602082019050919050565b60006020820190508181036000830152611cdb81611c9f565b9050919050565b7f5265717565737420616c72656164792066696e616c697a656400000000000000600082015250565b6000611d186019836115a7565b9150611d2382611ce2565b602082019050919050565b60006020820190508181036000830152611d4781611d0b565b9050919050565b7f496e73756666696369656e742066756e64730000000000000000000000000000600082015250565b6000611d846012836115a7565b9150611d8f82611d4e565b602082019050919050565b60006020820190508181036000830152611db381611d77565b9050919050565b6000611dc58261141a565b9150611dd08361141a565b9250828203905081811115611de857611de7611a30565b5b92915050565b6000606082019050611e03600083018661157e565b611e10602083018561158d565b611e1d604083018461157e565b949350505050565b7f4e487b7100000000000000000000000000000000000000000000000000000000600052602260045260246000fd5b60006002820490506001821680611e6c57607f821691505b602082108103611e7f57611e7e611e25565b5b50919050565b60008190508160005260206000209050919050565b60006020601f8301049050919050565b600082821b905092915050565b600060088302611ee77fffffffffffffffffffffffffffffffffffffffffffffffffffffffffffffffff82611eaa565b611ef18683611eaa565b95508019841693508086168417925050509392505050565b6000819050919050565b6000611f2e611f29611f248461141a565b611f09565b61141a565b9050919050565b6000819050919050565b611f4883611f13565b611f5c611f5482611f35565b848454611eb7565b825550505050565b600090565b611f71611f64565b611f7c818484611f3f565b505050565b5b81811015611fa057611f95600082611f69565b600181019050611f82565b5050565b601f821115611fe557611fb681611e85565b611fbf84611e9a565b81016020851015611fce578190505b611fe2611fda85611e9a565b830182611f81565b50505b505050565b600082821c905092915050565b600061200860001984600802611fea565b1980831691505092915050565b60006120218383611ff7565b9150826002028217905092915050565b61203a8261159c565b67ffffffffffffffff811115612053576120526117a4565b5b61205d8254611e54565b612068828285611fa4565b600060209050601f83116001811461209b5760008415612089578287015190505b6120938582612015565b8655506120fb565b601f1984166120a986611e85565b60005b828110156120d1578489015182556001820191506020850194506020810190506120ac565b868310156120ee57848901516120ea601f891682611ff7565b8355505b6001600288020188555050505b505050505050565b600061211e6121196121148461147d565b611f09565b61147d565b9050919050565b600061213082612103565b9050919050565b600061214282612125565b9050919050565b61215281612137565b82525050565b6000819050919050565b600061217d61217861217384612158565b611f09565b61141a565b9050919050565b61218d81612162565b82525050565b600060c08201905081810360008301526121ad81896115f3565b90506121bc602083018861157e565b6121c96040830187612149565b6121d66060830186611514565b6121e36080830185612184565b6121f060a083018461157e565b979650505050505050565b7f4d757374206265203c3d20313030000000000000000000000000000000000000600082015250565b6000612231600e836115a7565b915061223c826121fb565b602082019050919050565b6000602082019050818103600083015261226081612224565b9050919050565b7f4f6e6c7920617070726f766572732063616e20617070726f766520726571756560008201527f7374730000000000000000000000000000000000000000000000000000000000602082015250565b60006122c36023836115a7565b91506122ce82612267565b604082019050919050565b600060208201905081810360008301526122f2816122b6565b9050919050565b7f416c726561647920617070726f76656400000000000000000000000000000000600082015250565b600061232f6010836115a7565b915061233a826122f9565b602082019050919050565b6000602082019050818103600083015261235e81612322565b905091905056fea2646970667358221220634cbd9af22ee0480ae184ab534ca2d6b05d3eabb0cb566650bfb8f268499f8364736f6c634300081c0033",
  "linkReferences": {},
  "deployedLinkReferences": {}
}