{
  "_format": "hh-sol-artifact-1",
  "contractName": "CampaignFactory",
  "sourceName": "contracts/Campaign.sol",
  "abi": [
    {
      "anonymous": false,
      "inputs": [
        {
          "indexed": false,
          "internalType": "address",
          "name": "campaignAddress",
          "type": "address"
        },
        {
          "indexed": false,
          "internalType": "address",
          "name": "creator",
          "type": "address"
        }
      ],
      "name": "CampaignCreated",
      "type": "event"
    },
    {
      "inputs": [
        {
          "internalType": "uint256",
          "name": "minimum",
          "type": "uint256"
        }
      ],
      "name": "createCampaign",
      "outputs": [],
      "stateMutability": "payable",
      "type": "function"
    },
    {
      "inputs": [
        {
          "internalType": "uint256",
          "name": "",
          "type": "uint256"
        }
      ],
      "name": "deployedCampaigns",
      "outputs": [
        {
          "internalType": "address",
          "name": "",
          "type": "address"
        }
      ],
      "stateMutability": "view",
      "type": "function"
    },
    {
      "inputs": [],
      "name": "getDeployedCampaigns",
      "outputs": [
        {
          "internalType": "address[]",
          "name": "",
          "type": "address[]"
        }
      ],
      "stateMutability": "view",
      "type": "function"
    }
  ],
  "bytecode": "0x6080604052348015600f57600080fd5b506125f18061001f6000396000f3fe6080604052600436106100345760003560e01c8063339d50a5146100395780634acb9d4f14610076578063a3303a75146100a1575b600080fd5b34801561004557600080fd5b50610060600480360381019061005b9190610368565b6100bd565b60405161006d91906103d6565b60405180910390f35b34801561008257600080fd5b5061008b6100fc565b60405161009891906104af565b60405180910390f35b6100bb60048036038101906100b69190610368565b61018a565b005b600081815481106100cd57600080fd5b906000526020600020016000915054906101000a900473ffffffffffffffffffffffffffffffffffffffff1681565b6060600080548060200260200160405190810160405280929190818152602001828054801561018057602002820191906000526020600020905b8160009054906101000a900473ffffffffffffffffffffffffffffffffffffffff1673ffffffffffffffffffffffffffffffffffffffff1681526020019060010190808311610136575b5050505050905090565b6000606460023461019b9190610500565b6101a59190610571565b9050600081116101ea576040517f08c379a00000000000000000000000000000000000000000000000000000000081526004016101e1906105ff565b60405180910390fd5b73aada21fd544da24b3b96e465c4c7074f4d6e863273ffffffffffffffffffffffffffffffffffffffff166108fc829081150290604051600060405180830381858888f19350505050158015610244573d6000803e3d6000fd5b506000823360405161025590610320565b61026092919061062e565b604051809103906000f08015801561027c573d6000803e3d6000fd5b5090506000819080600181540180825580915050600190039060005260206000200160009091909190916101000a81548173ffffffffffffffffffffffffffffffffffffffff021916908373ffffffffffffffffffffffffffffffffffffffff1602179055507f6056366dba45431fd6a8854ad9f2594942b02c4f2c3f6fbc329b3079b027b8b48133604051610313929190610657565b60405180910390a1505050565b611f3b8061068183390190565b600080fd5b6000819050919050565b61034581610332565b811461035057600080fd5b50565b6000813590506103628161033c565b92915050565b60006020828403121561037e5761037d61032d565b5b600061038c84828501610353565b91505092915050565b600073ffffffffffffffffffffffffffffffffffffffff82169050919050565b60006103c082610395565b9050919050565b6103d0816103b5565b82525050565b60006020820190506103eb60008301846103c7565b92915050565b600081519050919050565b600082825260208201905092915050565b6000819050602082019050919050565b610426816103b5565b82525050565b6000610438838361041d565b60208301905092915050565b6000602082019050919050565b600061045c826103f1565b61046681856103fc565b93506104718361040d565b8060005b838110156104a2578151610489888261042c565b975061049483610444565b925050600181019050610475565b5085935050505092915050565b600060208201905081810360008301526104c98184610451565b905092915050565b7f4e487b7100000000000000000000000000000000000000000000000000000000600052601160045260246000fd5b600061050b82610332565b915061051683610332565b925082820261052481610332565b9150828204841483151761053b5761053a6104d1565b5b5092915050565b7f4e487b7100000000000000000000000000000000000000000000000000000000600052601260045260246000fd5b600061057c82610332565b915061058783610332565b92508261059757610596610542565b5b828204905092915050565b600082825260208201905092915050565b7f496e73756666696369656e74206665653a203225207265717569726564000000600082015250565b60006105e9601d836105a2565b91506105f4826105b3565b602082019050919050565b60006020820190508181036000830152610618816105dc565b9050919050565b61062881610332565b82525050565b6000604082019050610643600083018561061f565b61065060208301846103c7565b9392505050565b600060408201905061066c60008301856103c7565b61067960208301846103c7565b939250505056fe6080604052604260055534801561001557600080fd5b50604051611f3b380380611f3b8339818101604052810190610037919061011e565b806000806101000a81548173ffffffffffffffffffffffffffffffffffffffff021916908373ffffffffffffffffffffffffffffffffffffffff16021790555081600181905550505061015e565b600080fd5b6000819050919050565b61009d8161008a565b81146100a857600080fd5b50565b6000815190506100ba81610094565b92915050565b600073ffffffffffffffffffffffffffffffffffffffff82169050919050565b60006100eb826100c0565b9050919050565b6100fb816100e0565b811461010657600080fd5b50565b600081519050610118816100f2565b92915050565b6000806040838503121561013557610134610085565b5b6000610143858286016100ab565b925050602061015485828601610109565b9150509250929050565b611dce8061016d6000396000f3fe6080604052600436106100c65760003560e01c806382fde0931161007f578063a0016b8c11610059578063a0016b8c14610285578063c58343ef146102ae578063d7bb99ba146102ef578063d7d1bbdb146102f9576100d5565b806382fde093146102065780638a9cfd5514610231578063937e09b11461025a576100d5565b806303441006146100da5780630a144391146101035780634051ddac14610140578063481c6a751461016f5780637d0eef611461019a57806381d12c58146101c5576100d5565b366100d5576100d3610322565b005b600080fd5b3480156100e657600080fd5b5061010160048036038101906100fc9190610f37565b610479565b005b34801561010f57600080fd5b5061012a60048036038101906101259190610fc2565b6107ba565b604051610137919061100a565b60405180910390f35b34801561014c57600080fd5b506101556107da565b604051610166959493929190611043565b60405180910390f35b34801561017b57600080fd5b50610184610821565b6040516101919190611096565b60405180910390f35b3480156101a657600080fd5b506101af610845565b6040516101bc91906110b1565b60405180910390f35b3480156101d157600080fd5b506101ec60048036038101906101e79190610f37565b61084b565b6040516101fd95949392919061117d565b60405180910390f35b34801561021257600080fd5b5061021b610946565b60405161022891906110b1565b60405180910390f35b34801561023d57600080fd5b5061025860048036038101906102539190611338565b61094c565b005b34801561026657600080fd5b5061026f610b07565b60405161027c91906110b1565b60405180910390f35b34801561029157600080fd5b506102ac60048036038101906102a79190610f37565b610b0d565b005b3480156102ba57600080fd5b506102d560048036038101906102d09190610f37565b610be9565b6040516102e69594939291906113a7565b60405180910390f35b6102f7610322565b005b34801561030557600080fd5b50610320600480360381019061031b9190610f37565b610cfc565b005b600154341015610367576040517f08c379a000000000000000000000000000000000000000000000000000000000815260040161035e9061144d565b60405180910390fd5b600260003373ffffffffffffffffffffffffffffffffffffffff1673ffffffffffffffffffffffffffffffffffffffff16815260200190815260200160002060009054906101000a900460ff16610429576001600260003373ffffffffffffffffffffffffffffffffffffffff1673ffffffffffffffffffffffffffffffffffffffff16815260200190815260200160002060006101000a81548160ff021916908315150217905550600360008154809291906104239061149c565b91905055505b3373ffffffffffffffffffffffffffffffffffffffff167f1bb460ccaaf70fbacfec17a376f8acbd278c1405590ffcc8ebe4b88daf4f64ad3460405161046f91906110b1565b60405180910390a2565b60008054906101000a900473ffffffffffffffffffffffffffffffffffffffff1673ffffffffffffffffffffffffffffffffffffffff163373ffffffffffffffffffffffffffffffffffffffff1614610507576040517f08c379a00000000000000000000000000000000000000000000000000000000081526004016104fe90611556565b60405180910390fd5b600480549050811061054e576040517f08c379a0000000000000000000000000000000000000000000000000000000008152600401610545906115c2565b60405180910390fd5b600060048281548110610564576105636115e2565b5b906000526020600020906005020190506005546003546064836003015461058b9190611611565b6105959190611682565b10156105d6576040517f08c379a00000000000000000000000000000000000000000000000000000000081526004016105cd906116ff565b60405180910390fd5b8060020160149054906101000a900460ff1615610628576040517f08c379a000000000000000000000000000000000000000000000000000000000815260040161061f9061176b565b60405180910390fd5b806001015447101561066f576040517f08c379a0000000000000000000000000000000000000000000000000000000008152600401610666906117d7565b60405180910390fd5b60006064600283600101546106849190611611565b61068e9190611682565b905060008183600101546106a291906117f7565b90508260020160009054906101000a900473ffffffffffffffffffffffffffffffffffffffff1673ffffffffffffffffffffffffffffffffffffffff166108fc829081150290604051600060405180830381858888f1935050505015801561070e573d6000803e3d6000fd5b5073aada21fd544da24b3b96e465c4c7074f4d6e863273ffffffffffffffffffffffffffffffffffffffff166108fc839081150290604051600060405180830381858888f19350505050158015610769573d6000803e3d6000fd5b5060018360020160146101000a81548160ff021916908315150217905550837f5f737e695a47d9dd61a69c097b680eb2d154fd3a73ddf8e06ae201447c59339560405160405180910390a250505050565b60026020528060005260406000206000915054906101000a900460ff1681565b60008060008060006001544760048054905060035460008054906101000a900473ffffffffffffffffffffffffffffffffffffffff16945094509450945094509091929394565b60008054906101000a900473ffffffffffffffffffffffffffffffffffffffff1681565b60055481565b6004818154811061085b57600080fd5b906000526020600020906005020160009150905080600001805461087e9061185a565b80601f01602080910402602001604051908101604052809291908181526020018280546108aa9061185a565b80156108f75780601f106108cc576101008083540402835291602001916108f7565b820191906000526020600020905b8154815290600101906020018083116108da57829003601f168201915b5050505050908060010154908060020160009054906101000a900473ffffffffffffffffffffffffffffffffffffffff16908060020160149054906101000a900460ff16908060030154905085565b60035481565b60008054906101000a900473ffffffffffffffffffffffffffffffffffffffff1673ffffffffffffffffffffffffffffffffffffffff163373ffffffffffffffffffffffffffffffffffffffff16146109da576040517f08c379a00000000000000000000000000000000000000000000000000000000081526004016109d1906118fd565b60405180910390fd5b600460018160018154018082558091505003906000526020600020905050600060046001600480549050610a0e91906117f7565b81548110610a1f57610a1e6115e2565b5b9060005260206000209060050201905083816000019081610a409190611ac9565b50828160010181905550818160020160006101000a81548173ffffffffffffffffffffffffffffffffffffffff021916908373ffffffffffffffffffffffffffffffffffffffff16021790555060008160020160146101000a81548160ff021916908315150217905550600081600301819055506001600480549050610ac691906117f7565b7ff7365309cb3a1c4835d32acd2153ebf718723e270daad5bb2aac6dd47564583b858585604051610af993929190611bf0565b60405180910390a250505050565b60015481565b60008054906101000a900473ffffffffffffffffffffffffffffffffffffffff1673ffffffffffffffffffffffffffffffffffffffff163373ffffffffffffffffffffffffffffffffffffffff1614610b9b576040517f08c379a0000000000000000000000000000000000000000000000000000000008152600401610b9290611556565b60405180910390fd5b6064811115610bdf576040517f08c379a0000000000000000000000000000000000000000000000000000000008152600401610bd690611c7a565b60405180910390fd5b8060058190555050565b6060600080600080600060048781548110610c0757610c066115e2565b5b906000526020600020906005020190508060000181600101548260020160009054906101000a900473ffffffffffffffffffffffffffffffffffffffff168360020160149054906101000a900460ff168460030154848054610c689061185a565b80601f0160208091040260200160405190810160405280929190818152602001828054610c949061185a565b8015610ce15780601f10610cb657610100808354040283529160200191610ce1565b820191906000526020600020905b815481529060010190602001808311610cc457829003601f168201915b50505050509450955095509550955095505091939590929450565b600060048281548110610d1257610d116115e2565b5b90600052602060002090600502019050600260003373ffffffffffffffffffffffffffffffffffffffff1673ffffffffffffffffffffffffffffffffffffffff16815260200190815260200160002060009054906101000a900460ff16610dae576040517f08c379a0000000000000000000000000000000000000000000000000000000008152600401610da590611d0c565b60405180910390fd5b8060040160003373ffffffffffffffffffffffffffffffffffffffff1673ffffffffffffffffffffffffffffffffffffffff16815260200190815260200160002060009054906101000a900460ff1615610e3d576040517f08c379a0000000000000000000000000000000000000000000000000000000008152600401610e3490611d78565b60405180910390fd5b60018160040160003373ffffffffffffffffffffffffffffffffffffffff1673ffffffffffffffffffffffffffffffffffffffff16815260200190815260200160002060006101000a81548160ff021916908315150217905550806003016000815480929190610eac9061149c565b9190505550817ff3dc904660a0ea05aba8dfa1e21fbc4fb2914be2a3029da7b0fdd3e5eee20ddb33604051610ee19190611096565b60405180910390a25050565b6000604051905090565b600080fd5b600080fd5b6000819050919050565b610f1481610f01565b8114610f1f57600080fd5b50565b600081359050610f3181610f0b565b92915050565b600060208284031215610f4d57610f4c610ef7565b5b6000610f5b84828501610f22565b91505092915050565b600073ffffffffffffffffffffffffffffffffffffffff82169050919050565b6000610f8f82610f64565b9050919050565b610f9f81610f84565b8114610faa57600080fd5b50565b600081359050610fbc81610f96565b92915050565b600060208284031215610fd857610fd7610ef7565b5b6000610fe684828501610fad565b91505092915050565b60008115159050919050565b61100481610fef565b82525050565b600060208201905061101f6000830184610ffb565b92915050565b61102e81610f01565b82525050565b61103d81610f84565b82525050565b600060a0820190506110586000830188611025565b6110656020830187611025565b6110726040830186611025565b61107f6060830185611025565b61108c6080830184611034565b9695505050505050565b60006020820190506110ab6000830184611034565b92915050565b60006020820190506110c66000830184611025565b92915050565b600081519050919050565b600082825260208201905092915050565b60005b838110156111065780820151818401526020810190506110eb565b60008484015250505050565b6000601f19601f8301169050919050565b600061112e826110cc565b61113881856110d7565b93506111488185602086016110e8565b61115181611112565b840191505092915050565b600061116782610f64565b9050919050565b6111778161115c565b82525050565b600060a08201905081810360008301526111978188611123565b90506111a66020830187611025565b6111b3604083018661116e565b6111c06060830185610ffb565b6111cd6080830184611025565b9695505050505050565b600080fd5b600080fd5b7f4e487b7100000000000000000000000000000000000000000000000000000000600052604160045260246000fd5b61121982611112565b810181811067ffffffffffffffff82111715611238576112376111e1565b5b80604052505050565b600061124b610eed565b90506112578282611210565b919050565b600067ffffffffffffffff821115611277576112766111e1565b5b61128082611112565b9050602081019050919050565b82818337600083830152505050565b60006112af6112aa8461125c565b611241565b9050828152602081018484840111156112cb576112ca6111dc565b5b6112d684828561128d565b509392505050565b600082601f8301126112f3576112f26111d7565b5b813561130384826020860161129c565b91505092915050565b6113158161115c565b811461132057600080fd5b50565b6000813590506113328161130c565b92915050565b60008060006060848603121561135157611350610ef7565b5b600084013567ffffffffffffffff81111561136f5761136e610efc565b5b61137b868287016112de565b935050602061138c86828701610f22565b925050604061139d86828701611323565b9150509250925092565b600060a08201905081810360008301526113c18188611123565b90506113d06020830187611025565b6113dd6040830186611034565b6113ea6060830185610ffb565b6113f76080830184611025565b9695505050505050565b7f436f6e747269627574696f6e20746f6f20736d616c6c00000000000000000000600082015250565b60006114376016836110d7565b915061144282611401565b602082019050919050565b600060208201905081810360008301526114668161142a565b9050919050565b7f4e487b7100000000000000000000000000000000000000000000000000000000600052601160045260246000fd5b60006114a782610f01565b91507fffffffffffffffffffffffffffffffffffffffffffffffffffffffffffffffff82036114d9576114d861146d565b5b600182019050919050565b7f4f6e6c79206d616e616765722063616e2063616c6c20746869732066756e637460008201527f696f6e0000000000000000000000000000000000000000000000000000000000602082015250565b60006115406023836110d7565b915061154b826114e4565b604082019050919050565b6000602082019050818103600083015261156f81611533565b9050919050565b7f496e76616c6964207265717565737420696e6465780000000000000000000000600082015250565b60006115ac6015836110d7565b91506115b782611576565b602082019050919050565b600060208201905081810360008301526115db8161159f565b9050919050565b7f4e487b7100000000000000000000000000000000000000000000000000000000600052603260045260246000fd5b600061161c82610f01565b915061162783610f01565b925082820261163581610f01565b9150828204841483151761164c5761164b61146d565b5b5092915050565b7f4e487b7100000000000000000000000000000000000000000000000000000000600052601260045260246000fd5b600061168d82610f01565b915061169883610f01565b9250826116a8576116a7611653565b5b828204905092915050565b7f4e6f7420656e6f75676820617070726f76616c73000000000000000000000000600082015250565b60006116e96014836110d7565b91506116f4826116b3565b602082019050919050565b60006020820190508181036000830152611718816116dc565b9050919050565b7f5265717565737420616c72656164792066696e616c697a656400000000000000600082015250565b60006117556019836110d7565b91506117608261171f565b602082019050919050565b6000602082019050818103600083015261178481611748565b9050919050565b7f496e73756666696369656e742066756e64730000000000000000000000000000600082015250565b60006117c16012836110d7565b91506117cc8261178b565b602082019050919050565b600060208201905081810360008301526117f0816117b4565b9050919050565b600061180282610f01565b915061180d83610f01565b92508282039050818111156118255761182461146d565b5b92915050565b7f4e487b7100000000000000000000000000000000000000000000000000000000600052602260045260246000fd5b6000600282049050600182168061187257607f821691505b6020821081036118855761188461182b565b5b50919050565b7f4f6e6c79206d616e616765722843616d706169676e2063726561746f7229206360008201527f616e206372656174652072657175657374730000000000000000000000000000602082015250565b60006118e76032836110d7565b91506118f28261188b565b604082019050919050565b60006020820190508181036000830152611916816118da565b9050919050565b60008190508160005260206000209050919050565b60006020601f8301049050919050565b600082821b905092915050565b60006008830261197f7fffffffffffffffffffffffffffffffffffffffffffffffffffffffffffffffff82611942565b6119898683611942565b95508019841693508086168417925050509392505050565b6000819050919050565b60006119c66119c16119bc84610f01565b6119a1565b610f01565b9050919050565b6000819050919050565b6119e0836119ab565b6119f46119ec826119cd565b84845461194f565b825550505050565b600090565b611a096119fc565b611a148184846119d7565b505050565b5b81811015611a3857611a2d600082611a01565b600181019050611a1a565b5050565b601f821115611a7d57611a4e8161191d565b611a5784611932565b81016020851015611a66578190505b611a7a611a7285611932565b830182611a19565b50505b505050565b600082821c905092915050565b6000611aa060001984600802611a82565b1980831691505092915050565b6000611ab98383611a8f565b9150826002028217905092915050565b611ad2826110cc565b67ffffffffffffffff811115611aeb57611aea6111e1565b5b611af5825461185a565b611b00828285611a3c565b600060209050601f831160018114611b335760008415611b21578287015190505b611b2b8582611aad565b865550611b93565b601f198416611b418661191d565b60005b82811015611b6957848901518255600182019150602085019450602081019050611b44565b86831015611b865784890151611b82601f891682611a8f565b8355505b6001600288020188555050505b505050505050565b6000611bb6611bb1611bac84610f64565b6119a1565b610f64565b9050919050565b6000611bc882611b9b565b9050919050565b6000611bda82611bbd565b9050919050565b611bea81611bcf565b82525050565b60006060820190508181036000830152611c0a8186611123565b9050611c196020830185611025565b611c266040830184611be1565b949350505050565b7f4d757374206265203c3d20313030000000000000000000000000000000000000600082015250565b6000611c64600e836110d7565b9150611c6f82611c2e565b602082019050919050565b60006020820190508181036000830152611c9381611c57565b9050919050565b7f4f6e6c7920617070726f766572732063616e20617070726f766520726571756560008201527f7374730000000000000000000000000000000000000000000000000000000000602082015250565b6000611cf66023836110d7565b9150611d0182611c9a565b604082019050919050565b60006020820190508181036000830152611d2581611ce9565b9050919050565b7f416c726561647920617070726f76656400000000000000000000000000000000600082015250565b6000611d626010836110d7565b9150611d6d82611d2c565b602082019050919050565b60006020820190508181036000830152611d9181611d55565b905091905056fea2646970667358221220fa9bef345b32b51fdb30766e3650ece750cfe5833bb6a3498eba7ade853eeb5964736f6c634300081c0033a2646970667358221220083b2f239f76921400859e8d2f257ff1895fda628148b63647b27c94a5a3fcca64736f6c634300081c0033",
  "linkReferences": {},
  "deployedLinkReferences": {}
}